{
  "_format": "hh-sol-artifact-1",
  "contractName": "Fluence",
  "sourceName": "contracts/Fluence.sol",
  "abi": [
    {
      "inputs": [],
      "stateMutability": "payable",
      "type": "constructor"
    },
    {
      "anonymous": false,
      "inputs": [
        {
          "indexed": true,
          "internalType": "address",
          "name": "owner",
          "type": "address"
        },
        {
          "indexed": true,
          "internalType": "address",
          "name": "approved",
          "type": "address"
        },
        {
          "indexed": true,
          "internalType": "uint256",
          "name": "tokenId",
          "type": "uint256"
        }
      ],
      "name": "Approval",
      "type": "event"
    },
    {
      "anonymous": false,
      "inputs": [
        {
          "indexed": true,
          "internalType": "address",
          "name": "owner",
          "type": "address"
        },
        {
          "indexed": true,
          "internalType": "address",
          "name": "operator",
          "type": "address"
        },
        {
          "indexed": false,
          "internalType": "bool",
          "name": "approved",
          "type": "bool"
        }
      ],
      "name": "ApprovalForAll",
      "type": "event"
    },
    {
      "anonymous": false,
      "inputs": [
        {
          "indexed": true,
          "internalType": "address",
          "name": "previousOwner",
          "type": "address"
        },
        {
          "indexed": true,
          "internalType": "address",
          "name": "newOwner",
          "type": "address"
        }
      ],
      "name": "OwnershipTransferred",
      "type": "event"
    },
    {
      "anonymous": false,
      "inputs": [
        {
          "indexed": true,
          "internalType": "address",
          "name": "from",
          "type": "address"
        },
        {
          "indexed": true,
          "internalType": "address",
          "name": "to",
          "type": "address"
        },
        {
          "indexed": true,
          "internalType": "uint256",
          "name": "tokenId",
          "type": "uint256"
        }
      ],
      "name": "Transfer",
      "type": "event"
    },
    {
      "inputs": [],
      "name": "TOTAL_SUPPLY",
      "outputs": [
        {
          "internalType": "uint256",
          "name": "",
          "type": "uint256"
        }
      ],
      "stateMutability": "view",
      "type": "function"
    },
    {
      "inputs": [
        {
          "internalType": "address",
          "name": "to",
          "type": "address"
        },
        {
          "internalType": "uint256",
          "name": "tokenId",
          "type": "uint256"
        }
      ],
      "name": "approve",
      "outputs": [],
      "stateMutability": "nonpayable",
      "type": "function"
    },
    {
      "inputs": [
        {
          "internalType": "address",
          "name": "owner",
          "type": "address"
        }
      ],
      "name": "balanceOf",
      "outputs": [
        {
          "internalType": "uint256",
          "name": "",
          "type": "uint256"
        }
      ],
      "stateMutability": "view",
      "type": "function"
    },
    {
      "inputs": [],
      "name": "currentSupply",
      "outputs": [
        {
          "internalType": "uint256",
          "name": "",
          "type": "uint256"
        }
      ],
      "stateMutability": "view",
      "type": "function"
    },
    {
      "inputs": [
        {
          "internalType": "uint256",
          "name": "tokenId",
          "type": "uint256"
        }
      ],
      "name": "getApproved",
      "outputs": [
        {
          "internalType": "address",
          "name": "",
          "type": "address"
        }
      ],
      "stateMutability": "view",
      "type": "function"
    },
    {
      "inputs": [],
      "name": "getMintings",
      "outputs": [
        {
          "internalType": "uint256",
          "name": "",
          "type": "uint256"
        }
      ],
      "stateMutability": "view",
      "type": "function"
    },
    {
      "inputs": [
        {
          "internalType": "address",
          "name": "owner",
          "type": "address"
        },
        {
          "internalType": "address",
          "name": "operator",
          "type": "address"
        }
      ],
      "name": "isApprovedForAll",
      "outputs": [
        {
          "internalType": "bool",
          "name": "",
          "type": "bool"
        }
      ],
      "stateMutability": "view",
      "type": "function"
    },
    {
      "inputs": [],
      "name": "isMintingLive",
      "outputs": [
        {
          "internalType": "bool",
          "name": "",
          "type": "bool"
        }
      ],
      "stateMutability": "view",
      "type": "function"
    },
    {
      "inputs": [],
      "name": "mint",
      "outputs": [],
      "stateMutability": "payable",
      "type": "function"
    },
    {
      "inputs": [
        {
          "internalType": "address",
          "name": "",
          "type": "address"
        }
      ],
      "name": "mintedWalletAdrresses",
      "outputs": [
        {
          "internalType": "uint256",
          "name": "",
          "type": "uint256"
        }
      ],
      "stateMutability": "view",
      "type": "function"
    },
    {
      "inputs": [],
      "name": "mintingPrice",
      "outputs": [
        {
          "internalType": "uint256",
          "name": "",
          "type": "uint256"
        }
      ],
      "stateMutability": "view",
      "type": "function"
    },
    {
      "inputs": [],
      "name": "name",
      "outputs": [
        {
          "internalType": "string",
          "name": "",
          "type": "string"
        }
      ],
      "stateMutability": "view",
      "type": "function"
    },
    {
      "inputs": [],
      "name": "owner",
      "outputs": [
        {
          "internalType": "address",
          "name": "",
          "type": "address"
        }
      ],
      "stateMutability": "view",
      "type": "function"
    },
    {
      "inputs": [
        {
          "internalType": "uint256",
          "name": "tokenId",
          "type": "uint256"
        }
      ],
      "name": "ownerOf",
      "outputs": [
        {
          "internalType": "address",
          "name": "",
          "type": "address"
        }
      ],
      "stateMutability": "view",
      "type": "function"
    },
    {
      "inputs": [],
      "name": "renounceOwnership",
      "outputs": [],
      "stateMutability": "nonpayable",
      "type": "function"
    },
    {
      "inputs": [
        {
          "internalType": "address",
          "name": "from",
          "type": "address"
        },
        {
          "internalType": "address",
          "name": "to",
          "type": "address"
        },
        {
          "internalType": "uint256",
          "name": "tokenId",
          "type": "uint256"
        }
      ],
      "name": "safeTransferFrom",
      "outputs": [],
      "stateMutability": "nonpayable",
      "type": "function"
    },
    {
      "inputs": [
        {
          "internalType": "address",
          "name": "from",
          "type": "address"
        },
        {
          "internalType": "address",
          "name": "to",
          "type": "address"
        },
        {
          "internalType": "uint256",
          "name": "tokenId",
          "type": "uint256"
        },
        {
          "internalType": "bytes",
          "name": "data",
          "type": "bytes"
        }
      ],
      "name": "safeTransferFrom",
      "outputs": [],
      "stateMutability": "nonpayable",
      "type": "function"
    },
    {
      "inputs": [
        {
          "internalType": "address",
          "name": "operator",
          "type": "address"
        },
        {
          "internalType": "bool",
          "name": "approved",
          "type": "bool"
        }
      ],
      "name": "setApprovalForAll",
      "outputs": [],
      "stateMutability": "nonpayable",
      "type": "function"
    },
    {
      "inputs": [
        {
          "internalType": "uint256",
          "name": "totalSupply",
          "type": "uint256"
        }
      ],
      "name": "setTotalSupply",
      "outputs": [],
      "stateMutability": "nonpayable",
      "type": "function"
    },
    {
      "inputs": [
        {
          "internalType": "bytes4",
          "name": "interfaceId",
          "type": "bytes4"
        }
      ],
      "name": "supportsInterface",
      "outputs": [
        {
          "internalType": "bool",
          "name": "",
          "type": "bool"
        }
      ],
      "stateMutability": "view",
      "type": "function"
    },
    {
      "inputs": [],
      "name": "symbol",
      "outputs": [
        {
          "internalType": "string",
          "name": "",
          "type": "string"
        }
      ],
      "stateMutability": "view",
      "type": "function"
    },
    {
      "inputs": [],
      "name": "toggleMintingGoLive",
      "outputs": [],
      "stateMutability": "nonpayable",
      "type": "function"
    },
    {
      "inputs": [
        {
          "internalType": "uint256",
          "name": "tokenId",
          "type": "uint256"
        }
      ],
      "name": "tokenURI",
      "outputs": [
        {
          "internalType": "string",
          "name": "",
          "type": "string"
        }
      ],
      "stateMutability": "view",
      "type": "function"
    },
    {
      "inputs": [
        {
          "internalType": "address",
          "name": "from",
          "type": "address"
        },
        {
          "internalType": "address",
          "name": "to",
          "type": "address"
        },
        {
          "internalType": "uint256",
          "name": "tokenId",
          "type": "uint256"
        }
      ],
      "name": "transferFrom",
      "outputs": [],
      "stateMutability": "nonpayable",
      "type": "function"
    },
    {
      "inputs": [
        {
          "internalType": "address",
          "name": "newOwner",
          "type": "address"
        }
      ],
      "name": "transferOwnership",
      "outputs": [],
      "stateMutability": "nonpayable",
      "type": "function"
    }
  ],
  "bytecode": "0x6080604052662386f26fc1000060075560026008556040518060400160405280600781526020017f466c75656e6365000000000000000000000000000000000000000000000000008152506040518060400160405280600581526020017f464c4e434500000000000000000000000000000000000000000000000000000081525081600090816200009191906200041c565b508060019081620000a391906200041c565b505050620000c6620000ba620000d460201b60201c565b620000dc60201b60201c565b600560088190555062000503565b600033905090565b6000600660009054906101000a900473ffffffffffffffffffffffffffffffffffffffff16905081600660006101000a81548173ffffffffffffffffffffffffffffffffffffffff021916908373ffffffffffffffffffffffffffffffffffffffff1602179055508173ffffffffffffffffffffffffffffffffffffffff168173ffffffffffffffffffffffffffffffffffffffff167f8be0079c531659141344cd1fd0a4f28419497f9722a3daafe3b4186f6b6457e060405160405180910390a35050565b600081519050919050565b7f4e487b7100000000000000000000000000000000000000000000000000000000600052604160045260246000fd5b7f4e487b7100000000000000000000000000000000000000000000000000000000600052602260045260246000fd5b600060028204905060018216806200022457607f821691505b6020821081036200023a5762000239620001dc565b5b50919050565b60008190508160005260206000209050919050565b60006020601f8301049050919050565b600082821b905092915050565b600060088302620002a47fffffffffffffffffffffffffffffffffffffffffffffffffffffffffffffffff8262000265565b620002b0868362000265565b95508019841693508086168417925050509392505050565b6000819050919050565b6000819050919050565b6000620002fd620002f7620002f184620002c8565b620002d2565b620002c8565b9050919050565b6000819050919050565b6200031983620002dc565b62000331620003288262000304565b84845462000272565b825550505050565b600090565b6200034862000339565b620003558184846200030e565b505050565b5b818110156200037d57620003716000826200033e565b6001810190506200035b565b5050565b601f821115620003cc57620003968162000240565b620003a18462000255565b81016020851015620003b1578190505b620003c9620003c08562000255565b8301826200035a565b50505b505050565b600082821c905092915050565b6000620003f160001984600802620003d1565b1980831691505092915050565b60006200040c8383620003de565b9150826002028217905092915050565b6200042782620001a2565b67ffffffffffffffff811115620004435762000442620001ad565b5b6200044f82546200020b565b6200045c82828562000381565b600060209050601f8311600181146200049457600084156200047f578287015190505b6200048b8582620003fe565b865550620004fb565b601f198416620004a48662000240565b60005b82811015620004ce57848901518255600182019150602085019450602081019050620004a7565b86831015620004ee5784890151620004ea601f891682620003de565b8355505b6001600288020188555050505b505050505050565b612f0e80620005136000396000f3fe6080604052600436106101665760003560e01c8063771282f6116100d1578063adf09b851161008a578063e985e9c511610064578063e985e9c51461050b578063f2fde38b14610548578063f6a202ef14610571578063f7ea7a3d1461059c57610166565b8063adf09b851461047a578063b88d4fde146104a5578063c87b56dd146104ce57610166565b8063771282f61461038e57806384b2152f146103b95780638da5cb5b146103d0578063902d55a5146103fb57806395d89b4114610426578063a22cb4651461045157610166565b806323b872dd1161012357806323b872dd1461028057806335db70b5146102a957806342842e0e146102d45780636352211e146102fd57806370a082311461033a578063715018a61461037757610166565b806301ffc9a71461016b57806306fdde03146101a8578063081812fc146101d3578063095ea7b3146102105780631249c58b146102395780631a77dd9414610243575b600080fd5b34801561017757600080fd5b50610192600480360381019061018d9190611dc6565b6105c5565b60405161019f9190611e0e565b60405180910390f35b3480156101b457600080fd5b506101bd6106a7565b6040516101ca9190611eb9565b60405180910390f35b3480156101df57600080fd5b506101fa60048036038101906101f59190611f11565b610739565b6040516102079190611f7f565b60405180910390f35b34801561021c57600080fd5b5061023760048036038101906102329190611fc6565b61077f565b005b610241610896565b005b34801561024f57600080fd5b5061026a60048036038101906102659190612006565b610a73565b6040516102779190612042565b60405180910390f35b34801561028c57600080fd5b506102a760048036038101906102a2919061205d565b610a8b565b005b3480156102b557600080fd5b506102be610aeb565b6040516102cb9190612042565b60405180910390f35b3480156102e057600080fd5b506102fb60048036038101906102f6919061205d565b610af1565b005b34801561030957600080fd5b50610324600480360381019061031f9190611f11565b610b11565b6040516103319190611f7f565b60405180910390f35b34801561034657600080fd5b50610361600480360381019061035c9190612006565b610bc2565b60405161036e9190612042565b60405180910390f35b34801561038357600080fd5b5061038c610c79565b005b34801561039a57600080fd5b506103a3610c8d565b6040516103b09190612042565b60405180910390f35b3480156103c557600080fd5b506103ce610c93565b005b3480156103dc57600080fd5b506103e5610cc7565b6040516103f29190611f7f565b60405180910390f35b34801561040757600080fd5b50610410610cf1565b60405161041d9190612042565b60405180910390f35b34801561043257600080fd5b5061043b610cf7565b6040516104489190611eb9565b60405180910390f35b34801561045d57600080fd5b50610478600480360381019061047391906120dc565b610d89565b005b34801561048657600080fd5b5061048f610d9f565b60405161049c9190611e0e565b60405180910390f35b3480156104b157600080fd5b506104cc60048036038101906104c79190612251565b610db2565b005b3480156104da57600080fd5b506104f560048036038101906104f09190611f11565b610e14565b6040516105029190611eb9565b60405180910390f35b34801561051757600080fd5b50610532600480360381019061052d91906122d4565b610e7c565b60405161053f9190611e0e565b60405180910390f35b34801561055457600080fd5b5061056f600480360381019061056a9190612006565b610f10565b005b34801561057d57600080fd5b50610586610f93565b6040516105939190612042565b60405180910390f35b3480156105a857600080fd5b506105c360048036038101906105be9190611f11565b610fe2565b005b60007f80ac58cd000000000000000000000000000000000000000000000000000000007bffffffffffffffffffffffffffffffffffffffffffffffffffffffff1916827bffffffffffffffffffffffffffffffffffffffffffffffffffffffff1916148061069057507f5b5e139f000000000000000000000000000000000000000000000000000000007bffffffffffffffffffffffffffffffffffffffffffffffffffffffff1916827bffffffffffffffffffffffffffffffffffffffffffffffffffffffff1916145b806106a0575061069f82610ff4565b5b9050919050565b6060600080546106b690612343565b80601f01602080910402602001604051908101604052809291908181526020018280546106e290612343565b801561072f5780601f106107045761010080835404028352916020019161072f565b820191906000526020600020905b81548152906001019060200180831161071257829003601f168201915b5050505050905090565b60006107448261105e565b6004600083815260200190815260200160002060009054906101000a900473ffffffffffffffffffffffffffffffffffffffff169050919050565b600061078a82610b11565b90508073ffffffffffffffffffffffffffffffffffffffff168373ffffffffffffffffffffffffffffffffffffffff16036107fa576040517f08c379a00000000000000000000000000000000000000000000000000000000081526004016107f1906123e6565b60405180910390fd5b8073ffffffffffffffffffffffffffffffffffffffff166108196110a9565b73ffffffffffffffffffffffffffffffffffffffff1614806108485750610847816108426110a9565b610e7c565b5b610887576040517f08c379a000000000000000000000000000000000000000000000000000000000815260040161087e90612478565b60405180910390fd5b61089183836110b1565b505050565b600a60009054906101000a900460ff166108e5576040517f08c379a00000000000000000000000000000000000000000000000000000000081526004016108dc906124e4565b60405180910390fd5b6001600b60003373ffffffffffffffffffffffffffffffffffffffff1673ffffffffffffffffffffffffffffffffffffffff1681526020019081526020016000205410610967576040517f08c379a000000000000000000000000000000000000000000000000000000000815260040161095e90612550565b60405180910390fd5b60075434106109ab576040517f08c379a00000000000000000000000000000000000000000000000000000000081526004016109a2906125e2565b60405180910390fd5b60085460095411156109f2576040517f08c379a00000000000000000000000000000000000000000000000000000000081526004016109e99061264e565b60405180910390fd5b600b60003373ffffffffffffffffffffffffffffffffffffffff1673ffffffffffffffffffffffffffffffffffffffff1681526020019081526020016000206000815480929190610a429061269d565b919050555060096000815480929190610a5a9061269d565b919050555060006009549050610a70338261116a565b50565b600b6020528060005260406000206000915090505481565b610a9c610a966110a9565b82611188565b610adb576040517f08c379a0000000000000000000000000000000000000000000000000000000008152600401610ad290612757565b60405180910390fd5b610ae683838361121d565b505050565b60075481565b610b0c83838360405180602001604052806000815250610db2565b505050565b6000806002600084815260200190815260200160002060009054906101000a900473ffffffffffffffffffffffffffffffffffffffff169050600073ffffffffffffffffffffffffffffffffffffffff168173ffffffffffffffffffffffffffffffffffffffff1603610bb9576040517f08c379a0000000000000000000000000000000000000000000000000000000008152600401610bb0906127c3565b60405180910390fd5b80915050919050565b60008073ffffffffffffffffffffffffffffffffffffffff168273ffffffffffffffffffffffffffffffffffffffff1603610c32576040517f08c379a0000000000000000000000000000000000000000000000000000000008152600401610c2990612855565b60405180910390fd5b600360008373ffffffffffffffffffffffffffffffffffffffff1673ffffffffffffffffffffffffffffffffffffffff168152602001908152602001600020549050919050565b610c81611483565b610c8b6000611501565b565b60095481565b610c9b611483565b600a60009054906101000a900460ff1615600a60006101000a81548160ff021916908315150217905550565b6000600660009054906101000a900473ffffffffffffffffffffffffffffffffffffffff16905090565b60085481565b606060018054610d0690612343565b80601f0160208091040260200160405190810160405280929190818152602001828054610d3290612343565b8015610d7f5780601f10610d5457610100808354040283529160200191610d7f565b820191906000526020600020905b815481529060010190602001808311610d6257829003601f168201915b5050505050905090565b610d9b610d946110a9565b83836115c7565b5050565b600a60009054906101000a900460ff1681565b610dc3610dbd6110a9565b83611188565b610e02576040517f08c379a0000000000000000000000000000000000000000000000000000000008152600401610df990612757565b60405180910390fd5b610e0e84848484611733565b50505050565b6060610e1f8261105e565b6000610e2961178f565b90506000815111610e495760405180602001604052806000815250610e74565b80610e53846117a6565b604051602001610e649291906128b1565b6040516020818303038152906040525b915050919050565b6000600560008473ffffffffffffffffffffffffffffffffffffffff1673ffffffffffffffffffffffffffffffffffffffff16815260200190815260200160002060008373ffffffffffffffffffffffffffffffffffffffff1673ffffffffffffffffffffffffffffffffffffffff16815260200190815260200160002060009054906101000a900460ff16905092915050565b610f18611483565b600073ffffffffffffffffffffffffffffffffffffffff168173ffffffffffffffffffffffffffffffffffffffff1603610f87576040517f08c379a0000000000000000000000000000000000000000000000000000000008152600401610f7e90612947565b60405180910390fd5b610f9081611501565b50565b6000610f9d611483565b600b60003373ffffffffffffffffffffffffffffffffffffffff1673ffffffffffffffffffffffffffffffffffffffff16815260200190815260200160002054905090565b610fea611483565b8060088190555050565b60007f01ffc9a7000000000000000000000000000000000000000000000000000000007bffffffffffffffffffffffffffffffffffffffffffffffffffffffff1916827bffffffffffffffffffffffffffffffffffffffffffffffffffffffff1916149050919050565b61106781611906565b6110a6576040517f08c379a000000000000000000000000000000000000000000000000000000000815260040161109d906127c3565b60405180910390fd5b50565b600033905090565b816004600083815260200190815260200160002060006101000a81548173ffffffffffffffffffffffffffffffffffffffff021916908373ffffffffffffffffffffffffffffffffffffffff160217905550808273ffffffffffffffffffffffffffffffffffffffff1661112483610b11565b73ffffffffffffffffffffffffffffffffffffffff167f8c5be1e5ebec7d5bd14f71427d1e84f3dd0314c0f7b2291e5b200ac8c7c3b92560405160405180910390a45050565b611184828260405180602001604052806000815250611972565b5050565b60008061119483610b11565b90508073ffffffffffffffffffffffffffffffffffffffff168473ffffffffffffffffffffffffffffffffffffffff1614806111d657506111d58185610e7c565b5b8061121457508373ffffffffffffffffffffffffffffffffffffffff166111fc84610739565b73ffffffffffffffffffffffffffffffffffffffff16145b91505092915050565b8273ffffffffffffffffffffffffffffffffffffffff1661123d82610b11565b73ffffffffffffffffffffffffffffffffffffffff1614611293576040517f08c379a000000000000000000000000000000000000000000000000000000000815260040161128a906129d9565b60405180910390fd5b600073ffffffffffffffffffffffffffffffffffffffff168273ffffffffffffffffffffffffffffffffffffffff1603611302576040517f08c379a00000000000000000000000000000000000000000000000000000000081526004016112f990612a6b565b60405180910390fd5b61130d8383836119cd565b6113186000826110b1565b6001600360008573ffffffffffffffffffffffffffffffffffffffff1673ffffffffffffffffffffffffffffffffffffffff16815260200190815260200160002060008282546113689190612a8b565b925050819055506001600360008473ffffffffffffffffffffffffffffffffffffffff1673ffffffffffffffffffffffffffffffffffffffff16815260200190815260200160002060008282546113bf9190612abf565b92505081905550816002600083815260200190815260200160002060006101000a81548173ffffffffffffffffffffffffffffffffffffffff021916908373ffffffffffffffffffffffffffffffffffffffff160217905550808273ffffffffffffffffffffffffffffffffffffffff168473ffffffffffffffffffffffffffffffffffffffff167fddf252ad1be2c89b69c2b068fc378daa952ba7f163c4a11628f55a4df523b3ef60405160405180910390a461147e8383836119d2565b505050565b61148b6110a9565b73ffffffffffffffffffffffffffffffffffffffff166114a9610cc7565b73ffffffffffffffffffffffffffffffffffffffff16146114ff576040517f08c379a00000000000000000000000000000000000000000000000000000000081526004016114f690612b3f565b60405180910390fd5b565b6000600660009054906101000a900473ffffffffffffffffffffffffffffffffffffffff16905081600660006101000a81548173ffffffffffffffffffffffffffffffffffffffff021916908373ffffffffffffffffffffffffffffffffffffffff1602179055508173ffffffffffffffffffffffffffffffffffffffff168173ffffffffffffffffffffffffffffffffffffffff167f8be0079c531659141344cd1fd0a4f28419497f9722a3daafe3b4186f6b6457e060405160405180910390a35050565b8173ffffffffffffffffffffffffffffffffffffffff168373ffffffffffffffffffffffffffffffffffffffff1603611635576040517f08c379a000000000000000000000000000000000000000000000000000000000815260040161162c90612bab565b60405180910390fd5b80600560008573ffffffffffffffffffffffffffffffffffffffff1673ffffffffffffffffffffffffffffffffffffffff16815260200190815260200160002060008473ffffffffffffffffffffffffffffffffffffffff1673ffffffffffffffffffffffffffffffffffffffff16815260200190815260200160002060006101000a81548160ff0219169083151502179055508173ffffffffffffffffffffffffffffffffffffffff168373ffffffffffffffffffffffffffffffffffffffff167f17307eab39ab6107e8899845ad3d59bd9653f200f220920489ca2b5937696c31836040516117269190611e0e565b60405180910390a3505050565b61173e84848461121d565b61174a848484846119d7565b611789576040517f08c379a000000000000000000000000000000000000000000000000000000000815260040161178090612c3d565b60405180910390fd5b50505050565b606060405180602001604052806000815250905090565b6060600082036117ed576040518060400160405280600181526020017f30000000000000000000000000000000000000000000000000000000000000008152509050611901565b600082905060005b6000821461181f5780806118089061269d565b915050600a826118189190612c8c565b91506117f5565b60008167ffffffffffffffff81111561183b5761183a612126565b5b6040519080825280601f01601f19166020018201604052801561186d5781602001600182028036833780820191505090505b5090505b600085146118fa576001826118869190612a8b565b9150600a856118959190612cbd565b60306118a19190612abf565b60f81b8183815181106118b7576118b6612cee565b5b60200101907effffffffffffffffffffffffffffffffffffffffffffffffffffffffffffff1916908160001a905350600a856118f39190612c8c565b9450611871565b8093505050505b919050565b60008073ffffffffffffffffffffffffffffffffffffffff166002600084815260200190815260200160002060009054906101000a900473ffffffffffffffffffffffffffffffffffffffff1673ffffffffffffffffffffffffffffffffffffffff1614159050919050565b61197c8383611b5e565b61198960008484846119d7565b6119c8576040517f08c379a00000000000000000000000000000000000000000000000000000000081526004016119bf90612c3d565b60405180910390fd5b505050565b505050565b505050565b60006119f88473ffffffffffffffffffffffffffffffffffffffff16611d37565b15611b51578373ffffffffffffffffffffffffffffffffffffffff1663150b7a02611a216110a9565b8786866040518563ffffffff1660e01b8152600401611a439493929190612d72565b6020604051808303816000875af1925050508015611a7f57506040513d601f19601f82011682018060405250810190611a7c9190612dd3565b60015b611b01573d8060008114611aaf576040519150601f19603f3d011682016040523d82523d6000602084013e611ab4565b606091505b506000815103611af9576040517f08c379a0000000000000000000000000000000000000000000000000000000008152600401611af090612c3d565b60405180910390fd5b805181602001fd5b63150b7a0260e01b7bffffffffffffffffffffffffffffffffffffffffffffffffffffffff1916817bffffffffffffffffffffffffffffffffffffffffffffffffffffffff191614915050611b56565b600190505b949350505050565b600073ffffffffffffffffffffffffffffffffffffffff168273ffffffffffffffffffffffffffffffffffffffff1603611bcd576040517f08c379a0000000000000000000000000000000000000000000000000000000008152600401611bc490612e4c565b60405180910390fd5b611bd681611906565b15611c16576040517f08c379a0000000000000000000000000000000000000000000000000000000008152600401611c0d90612eb8565b60405180910390fd5b611c22600083836119cd565b6001600360008473ffffffffffffffffffffffffffffffffffffffff1673ffffffffffffffffffffffffffffffffffffffff1681526020019081526020016000206000828254611c729190612abf565b92505081905550816002600083815260200190815260200160002060006101000a81548173ffffffffffffffffffffffffffffffffffffffff021916908373ffffffffffffffffffffffffffffffffffffffff160217905550808273ffffffffffffffffffffffffffffffffffffffff16600073ffffffffffffffffffffffffffffffffffffffff167fddf252ad1be2c89b69c2b068fc378daa952ba7f163c4a11628f55a4df523b3ef60405160405180910390a4611d33600083836119d2565b5050565b6000808273ffffffffffffffffffffffffffffffffffffffff163b119050919050565b6000604051905090565b600080fd5b600080fd5b60007fffffffff0000000000000000000000000000000000000000000000000000000082169050919050565b611da381611d6e565b8114611dae57600080fd5b50565b600081359050611dc081611d9a565b92915050565b600060208284031215611ddc57611ddb611d64565b5b6000611dea84828501611db1565b91505092915050565b60008115159050919050565b611e0881611df3565b82525050565b6000602082019050611e236000830184611dff565b92915050565b600081519050919050565b600082825260208201905092915050565b60005b83811015611e63578082015181840152602081019050611e48565b60008484015250505050565b6000601f19601f8301169050919050565b6000611e8b82611e29565b611e958185611e34565b9350611ea5818560208601611e45565b611eae81611e6f565b840191505092915050565b60006020820190508181036000830152611ed38184611e80565b905092915050565b6000819050919050565b611eee81611edb565b8114611ef957600080fd5b50565b600081359050611f0b81611ee5565b92915050565b600060208284031215611f2757611f26611d64565b5b6000611f3584828501611efc565b91505092915050565b600073ffffffffffffffffffffffffffffffffffffffff82169050919050565b6000611f6982611f3e565b9050919050565b611f7981611f5e565b82525050565b6000602082019050611f946000830184611f70565b92915050565b611fa381611f5e565b8114611fae57600080fd5b50565b600081359050611fc081611f9a565b92915050565b60008060408385031215611fdd57611fdc611d64565b5b6000611feb85828601611fb1565b9250506020611ffc85828601611efc565b9150509250929050565b60006020828403121561201c5761201b611d64565b5b600061202a84828501611fb1565b91505092915050565b61203c81611edb565b82525050565b60006020820190506120576000830184612033565b92915050565b60008060006060848603121561207657612075611d64565b5b600061208486828701611fb1565b935050602061209586828701611fb1565b92505060406120a686828701611efc565b9150509250925092565b6120b981611df3565b81146120c457600080fd5b50565b6000813590506120d6816120b0565b92915050565b600080604083850312156120f3576120f2611d64565b5b600061210185828601611fb1565b9250506020612112858286016120c7565b9150509250929050565b600080fd5b600080fd5b7f4e487b7100000000000000000000000000000000000000000000000000000000600052604160045260246000fd5b61215e82611e6f565b810181811067ffffffffffffffff8211171561217d5761217c612126565b5b80604052505050565b6000612190611d5a565b905061219c8282612155565b919050565b600067ffffffffffffffff8211156121bc576121bb612126565b5b6121c582611e6f565b9050602081019050919050565b82818337600083830152505050565b60006121f46121ef846121a1565b612186565b9050828152602081018484840111156122105761220f612121565b5b61221b8482856121d2565b509392505050565b600082601f8301126122385761223761211c565b5b81356122488482602086016121e1565b91505092915050565b6000806000806080858703121561226b5761226a611d64565b5b600061227987828801611fb1565b945050602061228a87828801611fb1565b935050604061229b87828801611efc565b925050606085013567ffffffffffffffff8111156122bc576122bb611d69565b5b6122c887828801612223565b91505092959194509250565b600080604083850312156122eb576122ea611d64565b5b60006122f985828601611fb1565b925050602061230a85828601611fb1565b9150509250929050565b7f4e487b7100000000000000000000000000000000000000000000000000000000600052602260045260246000fd5b6000600282049050600182168061235b57607f821691505b60208210810361236e5761236d612314565b5b50919050565b7f4552433732313a20617070726f76616c20746f2063757272656e74206f776e6560008201527f7200000000000000000000000000000000000000000000000000000000000000602082015250565b60006123d0602183611e34565b91506123db82612374565b604082019050919050565b600060208201905081810360008301526123ff816123c3565b9050919050565b7f4552433732313a20617070726f76652063616c6c6572206973206e6f7420746f60008201527f6b656e206f776e6572206e6f7220617070726f76656420666f7220616c6c0000602082015250565b6000612462603e83611e34565b915061246d82612406565b604082019050919050565b6000602082019050818103600083015261249181612455565b9050919050565b7f4f4f50532c204d696e74696e67206e6f74206c69766520796574000000000000600082015250565b60006124ce601a83611e34565b91506124d982612498565b602082019050919050565b600060208201905081810360008301526124fd816124c1565b9050919050565b7f4f4f50532c204f6e6c79206f6e65206d696e74696e6720616c6c6f7765640000600082015250565b600061253a601e83611e34565b915061254582612504565b602082019050919050565b600060208201905081810360008301526125698161252d565b9050919050565b7f4f4f50532c20496e737566666963656e74206f7220496e636f7272656374204560008201527f7468657200000000000000000000000000000000000000000000000000000000602082015250565b60006125cc602483611e34565b91506125d782612570565b604082019050919050565b600060208201905081810360008301526125fb816125bf565b9050919050565b7f4f5050532c20534f4c44204f5554000000000000000000000000000000000000600082015250565b6000612638600e83611e34565b915061264382612602565b602082019050919050565b600060208201905081810360008301526126678161262b565b9050919050565b7f4e487b7100000000000000000000000000000000000000000000000000000000600052601160045260246000fd5b60006126a882611edb565b91507fffffffffffffffffffffffffffffffffffffffffffffffffffffffffffffffff82036126da576126d961266e565b5b600182019050919050565b7f4552433732313a2063616c6c6572206973206e6f7420746f6b656e206f776e6560008201527f72206e6f7220617070726f766564000000000000000000000000000000000000602082015250565b6000612741602e83611e34565b915061274c826126e5565b604082019050919050565b6000602082019050818103600083015261277081612734565b9050919050565b7f4552433732313a20696e76616c696420746f6b656e2049440000000000000000600082015250565b60006127ad601883611e34565b91506127b882612777565b602082019050919050565b600060208201905081810360008301526127dc816127a0565b9050919050565b7f4552433732313a2061646472657373207a65726f206973206e6f74206120766160008201527f6c6964206f776e65720000000000000000000000000000000000000000000000602082015250565b600061283f602983611e34565b915061284a826127e3565b604082019050919050565b6000602082019050818103600083015261286e81612832565b9050919050565b600081905092915050565b600061288b82611e29565b6128958185612875565b93506128a5818560208601611e45565b80840191505092915050565b60006128bd8285612880565b91506128c98284612880565b91508190509392505050565b7f4f776e61626c653a206e6577206f776e657220697320746865207a65726f206160008201527f6464726573730000000000000000000000000000000000000000000000000000602082015250565b6000612931602683611e34565b915061293c826128d5565b604082019050919050565b6000602082019050818103600083015261296081612924565b9050919050565b7f4552433732313a207472616e736665722066726f6d20696e636f72726563742060008201527f6f776e6572000000000000000000000000000000000000000000000000000000602082015250565b60006129c3602583611e34565b91506129ce82612967565b604082019050919050565b600060208201905081810360008301526129f2816129b6565b9050919050565b7f4552433732313a207472616e7366657220746f20746865207a65726f2061646460008201527f7265737300000000000000000000000000000000000000000000000000000000602082015250565b6000612a55602483611e34565b9150612a60826129f9565b604082019050919050565b60006020820190508181036000830152612a8481612a48565b9050919050565b6000612a9682611edb565b9150612aa183611edb565b9250828203905081811115612ab957612ab861266e565b5b92915050565b6000612aca82611edb565b9150612ad583611edb565b9250828201905080821115612aed57612aec61266e565b5b92915050565b7f4f776e61626c653a2063616c6c6572206973206e6f7420746865206f776e6572600082015250565b6000612b29602083611e34565b9150612b3482612af3565b602082019050919050565b60006020820190508181036000830152612b5881612b1c565b9050919050565b7f4552433732313a20617070726f766520746f2063616c6c657200000000000000600082015250565b6000612b95601983611e34565b9150612ba082612b5f565b602082019050919050565b60006020820190508181036000830152612bc481612b88565b9050919050565b7f4552433732313a207472616e7366657220746f206e6f6e20455243373231526560008201527f63656976657220696d706c656d656e7465720000000000000000000000000000602082015250565b6000612c27603283611e34565b9150612c3282612bcb565b604082019050919050565b60006020820190508181036000830152612c5681612c1a565b9050919050565b7f4e487b7100000000000000000000000000000000000000000000000000000000600052601260045260246000fd5b6000612c9782611edb565b9150612ca283611edb565b925082612cb257612cb1612c5d565b5b828204905092915050565b6000612cc882611edb565b9150612cd383611edb565b925082612ce357612ce2612c5d565b5b828206905092915050565b7f4e487b7100000000000000000000000000000000000000000000000000000000600052603260045260246000fd5b600081519050919050565b600082825260208201905092915050565b6000612d4482612d1d565b612d4e8185612d28565b9350612d5e818560208601611e45565b612d6781611e6f565b840191505092915050565b6000608082019050612d876000830187611f70565b612d946020830186611f70565b612da16040830185612033565b8181036060830152612db38184612d39565b905095945050505050565b600081519050612dcd81611d9a565b92915050565b600060208284031215612de957612de8611d64565b5b6000612df784828501612dbe565b91505092915050565b7f4552433732313a206d696e7420746f20746865207a65726f2061646472657373600082015250565b6000612e36602083611e34565b9150612e4182612e00565b602082019050919050565b60006020820190508181036000830152612e6581612e29565b9050919050565b7f4552433732313a20746f6b656e20616c7265616479206d696e74656400000000600082015250565b6000612ea2601c83611e34565b9150612ead82612e6c565b602082019050919050565b60006020820190508181036000830152612ed181612e95565b905091905056fea2646970667358221220857c515566c9f7098b87c0459b356a8f0143c6225913857b3ad78fe5a19afa0c64736f6c63430008110033",
  "linkReferences": {},
  "deployedLinkReferences": {}
}